:020000040040BA
:1000000000C0002031024000C1274000C32740004B
:10001000C5274000C7274000C92740000000000056
:10002000000000000000000000000000CB2740009E
:10003000CD27400000000000CF274000D12740001E
:10004000D3274000D5274000D7274000D9274000BC
:10005000DB274000DD274000DF27400000000000D4
:10006000E1274000E3274000E5274000E727400064
:10007000E9274000EB274000ED274000EF27400034
:100080000000000000000000F1274000F3274000BE
:10009000F5274000F7274000F9274000FB274000E4
:1000A000FD274000F5514000012840000328400092
:1000B0000528400007284000092840000B28400080
:1000C0000D2840000F284000F1064000000000000D
:1000D000424F4F543134000000BA70474FF4810151
:1000E0004EF60850CEF200000160086880F30888E0
:1000F00048684FF0010140EA0100004770474FF4A3
:1001000000014EF60850CEF2000001604FF00003EF
:10011000C0F28003186880F3088858684FF0010324
:1001200040EA030000477047F8B5394B4FF40052DE
:100130001A614FF00072C3F8002E322300BF013B5A
:10014000FCD1344D344E324F0A24EB6B99010DD55E
:1001500004F0DEFB01233360EB6BDA0513D54FF4BB
:1001600000537B6102F0ECFDFFF7C9FF013CECD1CD
:1001700004F0CEFB00F04200422801D0FFF7AEFFB2
:10018000254B02221A60254B4FF480721A60204AD8
:10019000136ADB0106D51E4A214B114613624FF04C
:1001A000FF3309E01F4B13624FF0FF33916EC80716
:1001B000F1D4013BFAD1EEE78A6E12F4803F144A83
:1001C00001D1013BF8D1136B23F0030343F001038A
:1001D00013630F4A4FF0FF33916E090701D4013BBF
:1001E000FAD10B4B104A9A62094A4FF0FF33916ED5
:1001F000880701D4013BFAD1054B02221A63044A55
:100200000023916E090701D4013BFAD10748F8BDDC
:1002100000040E4000120E4078000020000A0E403C
:10022000090837010908370002010520005125029D
:1002300038B5FFF779FF0D4A0D4B0E4C1A600E4D85
:1002400000230E4A02E05959995004339918A142EB
:10025000F9D30B4B0B4A002101E043F8041B9342F6
:10026000FBD3094B186005F0BDF9FEE70000400024
:1002700008ED00E0780000200C6A4000000000203B
:1002800078000020B96C0020E85700201C2270B5CF
:100290005043114B1A5C1C18042A02D01A5C032A22
:1002A0000BD102221A546369A3B16569E268266919
:1002B000A368A069F318A84770BD1A5C062A02D08B
:1002C0001A5C052A06D102221A54636913B1A06987
:1002D0000022984770BD00BF7C0000201F4B13B563
:1002E0001C2101FB00314C781D4B00F10C02F4B9CC
:1002F00053F822400094009C44F04F040094009C6A
:1003000024F002040094009C43F8224000F10C0207
:1003100053F822209207F9D4F8B1012804D002281A
:1003200002D00438032818D801234B7015E053F885
:1003300022400194019C44F04F040194019C24F05C
:1003400040040194019C43F8224000F10C0253F850
:10035000222012F04002F8D14A701CBD7C0000201F
:10036000004003400F4B1C2202FB00335A881969DE
:1003700092B28A42C8BF1A69996870B589189960A3
:100380001969094C891A196108E0596800F11405C6
:1003900011F8016B013A44F825605960002AF4DC39
:1003A00070BD00BF7C0000200040034070B50022FB
:1003B000094D1C2611464FF0FF3006FB02F40132B6
:1003C0002B19082AD86059609860996118615961A1
:1003D00059702955F1D170BD7C000020F8B5074D4A
:1003E00001241C270026E0B20221FFF74FFF07FB84
:1003F00004F30134082CEE54F5D1F8BD7C00002044
:10040000454B2DE9F7431C2202FB0033B3F80EC025
:100410000C2707FB0CF75D6801218DF80710EA191E
:100420005C88B2F80A80A4B2A045B8BF4446002C4C
:100430006ED0B2F80890D688EF594E44BE19A7B2D4
:10044000B944C7EB0807BFB29A60A2F80890578179
:10045000E7B90CEB0102B3F80CC092B29445DA8113
:1004600004D19A7C0AB1DF8100E0D974DA89198A53
:10047000914201D10121D974D97C49B90C2303FBE4
:10048000025293881181D180538101E0002200E063
:100490000122E7108DF807203D4633461F4A23E02E
:1004A00093F800C000F1140142F821C093F801C094
:1004B000013D42F821C093F802C042F821C093F8F0
:1004C00003C042F821C093F804C042F821C093F859
:1004D00005C042F821C093F806C042F821C093F845
:1004E00007C0083342F821C0002DD9D106EBC7035D
:1004F00004F007041C19094A05E013F8015B00F138
:10050000140142F82150A342F7D19DF8070000E002
:100510000846BDE8FE8300BF7C0000200040034089
:100520001F280C4B4FF0010208D802FA00F099691D
:1005300000EA010282420CD018617047203802FAAA
:1005400000F0D3F8081100EA0102824218BFC3F894
:100550000001704700040E4008B5064BD3F808317F
:10056000590704D42220FFF7DBFF012008BD00203B
:1005700008BD00BF00040E401F280B4B4FF00101C7
:1005800007D801FA00F09A69024082420BD15A6101
:100590007047203801FA00F0D3F808210240824267
:1005A00008BFC3F80421704700040E40094B6FF0E8
:1005B00003021A619A6922F003020432FAD1054A51
:1005C0004FF0FF31C2F80011D3F808210132FBD1FE
:1005D000704700BF00040E40084B6FF003025A61E1
:1005E0009A6932F00301FBD1044A4FF0FF31C2F89F
:1005F0000411D3F80821002AFBD1704700040E40F3
:10060000064A1F2894BF9269D2F808214FF00103CF
:1006100088BF203803FA00F01040704700040E40F5
:100620002DE9F3410646304C28B940236380074644
:100630008046054611E001F023FF1C2303FB004424
:100640000546304601F023FF8046304601F01CFF8E
:100650000746304601F01FFF60802378042B08D046
:100660002378032B05D02378062B02D02378052B83
:1006700003D128460321FFF709FE012202FA05F201
:1006800002232370194B4FEA0824996A44EA87270A
:1006900011439962996A21EA0201996205F10C01FC
:1006A00053F821000190019840F04F00019001980B
:1006B00040F4004038430190019847F4004743F864
:1006C0002100C82101E0013906D005F10C0053F8E2
:1006D00020003840B842F6D1B8F1000F01D1034BE9
:1006E0001A61BDE8FC8100BF7C000020004003408F
:1006F000AB4A2DE9F04FD369966997B01E40A94BDC
:1007000093F8E030012B03D806F40856F143116248
:10071000002E00F0E182B6F5807F1AD1002B00F0A8
:10072000DB829F4C4FF4085222619E4A266282F877
:10073000E130002382F8E03000F0BAFE636F22203F
:1007400043F480736367FFF717FF974B80221A60AB
:10075000C2E216F408551BD093B9FFF7FDFE934B88
:1007600080221A608F4A92F8E130022B82F8E03042
:1007700006D98B4B5A6F22F480725A6700F097FEAD
:10078000874B4FF40C521A624FF408525A61A3E29D
:1007900016F480531BD0834B0322814C83F8E02056
:1007A000636F23F480736367FFF700FEFFF716FEA5
:1007B0002846FFF735FF4FF40C5323624FF4807344
:1007C000236100F073FE4FF48053236284E2744D82
:1007D0000293AB46A846029B4FF0010C0CFA03F3C0
:1007E0003342039300F07282029B4FF01C09DCB28B
:1007F00009FB04F904F10C0255F82230DFF8A4A13A
:100800000193DB070AEB090740F186811AF809100A
:10081000052940F0AA80B868FB7C0189EBB1E1B9F9
:100820000CFA04F0686120460092FFF72FFD009A51
:1008300055F822100591059941F04F010591059950
:1008400021F001010591059945F8221004F10C02EF
:1008500055F82220D007F9D45EE17A8892B291420D
:10086000C28807D9B7F802E07244C2807A88891A30
:10087000018103E089180022C18002810CB1032CA0
:1008800033D12046FFF7BCFD04F10C0255F82210CD
:100890000691069941F04F010691069941F0100129
:1008A0000691069945F82210C82201E0013A05D0C8
:1008B00004F10C0155F82110C906F7D504F10C021A
:1008C00058F822100791079941F04F0107910799B5
:1008D00021F001010791079948F8221004F10C0258
:1008E00055F82220D307F9D432E004F10C0255F870
:1008F00022100891089941F04F010891089941F0A0
:1009000010010891089945F82210C82201E0013A27
:1009100005D004F10C0155F82110C806F7D504F1F3
:100920000C0258F822100991099941F04F010991E0
:10093000099921F001010991099948F8221004F15F
:100940000C0255F82220D107F9D42046FFF758FDB4
:10095000002800F0E1807A69002A00F0DD807B69E0
:10096000B869042101229847D6E01AF80910032932
:1009700040F0BE8055F82220B96812F4E06F7A8802
:1009800092B204D19142ACBF0022012212E0914206
:100990000EDC3A69D2F1010238BF002209E000BF43
:1009A000004003407C00002004040E4000040E4080
:1009B0000022D2B2F9683AB3BA68019B8A18FA6089
:1009C000002213F4E06FBA6003D0012202FA04F2AD
:1009D0006A6100212046FFF759FC04F10C0255F82A
:1009E00022100A910A9941F04F010A910A9921F0C7
:1009F00001010A910A9945F8221004F10C0255F8F8
:100A00002220D207F9D487E07A8892B28A18FA6055
:100A1000B9687A8892B28A1ABA600CB1032C33D1C1
:100A20002046FFF79FFC04F10C0255F822100B91B1
:100A30000B9941F04F010B910B9941F010010B9173
:100A40000B9945F82210C82201E0013A05D004F1C3
:100A50000C0155F82110CB06F7D504F10C0258F81B
:100A600022100C910C9941F04F010C910C9921F03E
:100A700001010C910C9948F8221004F10C0255F870
:100A80002220D007F9D447E004F10C0255F82210D7
:100A90000D910D9941F04F010D910D9941F010010B
:100AA0000D910D9945F82210C82201E0013A05D0B8
:100AB00004F10C0155F82110C906F7D504F10C0218
:100AC00058F822100E910E9941F04F010E910E9997
:100AD00021F001010E910E9948F8221004F10C0248
:100AE00055F82220D307F9D42046FFF73BFC13E04A
:100AF00055F822100F910F9941F04F010F910F9966
:100B000021F001010F910F9945F8221004F10C0218
:100B100055F82220D007F9D4019B13F0420F50D092
:100B20001AF80920042A16D023F0F82131F0FF0723
:100B300005D12046FFF7D2FB204639463FE0019B16
:100B4000990603D52046FFF7C9FB3AE0012303FAD3
:100B500004F36B6135E0019B3869190C81420A4648
:100B600005DDB8683B69CA1A8218BA603A69386903
:100B7000801A3861F8688018F86009E004F1140EF2
:100B8000786855F82E30013A037078680130786043
:100B9000002AF3DC20460091FFF7A0FB3A69009998
:100BA0001AB17B889BB299420BD2019B13F4E06F80
:100BB00003D0012303FA04F36B6120460021FFF701
:100BC00065FB019B1A0703D4019B5B072FD47AE0D6
:100BD00004F10C0355F823201092109A42F04F02B2
:100BE0001092109A22F008021092109A45F82320D1
:100BF00004F10C035BF823201007F9D41AF809203C
:100C0000012AE1D05BF823201192119A42F04F02A1
:100C10001192119A22F020021192119A4BF823207E
:100C200004F10C0355F823309906F9D4CCE71AF8EF
:100C30000930042B03D01AF80930032B03D12046C6
:100C40000021FFF723FB00232A6D14A81A54013357
:100C5000082BF9D101F037FC012810D004F10C0366
:100C600055F823201392139A42F04F021392139ACD
:100C700022F004021392139A45F823201AE004F19B
:100C80000C035BF823201292129A42F04F02129248
:100C9000129A42F080021292129A4BF82320C82333
:100CA00001E0013BDAD004F10C0255F822201206D3
:100CB000F7D5D3E704F10C035BF823305807F9D4D8
:100CC00014A800F0ABFC039B26EA0306029B013349
:100CD0000293002E7FF47FAD17B0BDE8F08FF7B51B
:100CE00004461C206043244E375C3518022F41D146
:100CF0002A610022AA60EA606B61089B1F4AAB610F
:100D000003236960335404F10C0752F827301B4E5B
:100D1000D906F8D42046FFF725FB56F82730019373
:100D2000019B43F04F030193019B43F01003019398
:100D3000019B46F82730C82301E0013B05D004F1B0
:100D40000C0256F82220D206F7D564B1012C04D04B
:100D5000022C02D0231F032B05D82B69002B02DDA8
:100D60002046FFF7FFFA012303FA04F4034B0020A7
:100D70001C6100E00120FEBD7C000020004003401B
:100D8000F7B50546BDF82060002869D01C206843EF
:100D9000354F17F800C03C18BCF1020F62D14FF07C
:100DA000050E07F800E0002B08BF002609984FF059
:100DB0000C0EE6810EFB061660610A98A374A06112
:100DC00000206160A2812082A660E074034609E0F1
:100DD00031F8086C013321F8060C21F8040C21F8D5
:100DE000026C9BB20C319342F2D1204A05F10C0700
:100DF00052F827301D4EDB06F8D42846FFF700FBDB
:100E000056F827300193019B43F04F030193019B58
:100E100043F010030193019B46F82730C82301E0FB
:100E2000013B05D005F10C0256F82220D006F7D57B
:100E3000012D04D0022D02D02B1F032B09D8E389EA
:100E400062680C2101FB03235B8913B12846FFF77D
:100E5000D7FA012303FA05F5044B00201D6102E0D7
:100E6000052000E00120FEBD7C0000200040034082
:100E7000F0B51C2545430C4E775D7419022F10D137
:100E80000427775522610022A260E2606361059B1E
:100E90006160A361012303FA00F0044B186110465E
:100EA000F0BD0120F0BD00BF7C00002000400340E9
:100EB000F0B51C254543154E73195F681C8A08B3AD
:100EC000705D062802D0705D05281BD1987CC8B1E2
:100ED000D889A04201D1D87CB0B1601C9D8980B274
:100EE0008542188201D1002018820C2060433C18F2
:100EF00009B13950A280A18800202081E080618161
:100F0000D874F0BD0620F0BD0120F0BD7C000020AB
:100F100073B51C254543164E0446735D33B3735DAC
:100F2000012B23D00221FFF7B1F9124A04F10C037F
:100F300052F823100191019941F04F01019101995B
:100F400041F020010191019942F82310C82301E0EA
:100F5000013B05D004F10C0152F821108906F7D5A8
:100F6000012303FA04F4034A735514617CBD00BFE6
:100F70007C000020004003401C234343154A82B0FC
:100F8000D15C21B30221D154134B00F10C0253F870
:100F900022100191019941F04F010191019921F035
:100FA00020010191019943F82210194600F10C0229
:100FB00051F82220084B9206F8D4012101FA00F0E2
:100FC0009A6A02439A629A6A22EA0000986202B020
:100FD000704700BF7C000020004003401C235843A2
:100FE000024A105C411E4842484170477C00002084
:100FF000002070471C234343134A82B0D35C022B6A
:101000001CD1124A00F10C0352F8231001910199EE
:1010100041F04F010191019941F0200101910199A5
:1010200042F82310C82301E0013B09D000F10C0174
:1010300052F821108906F7D5002002E0012000E0D7
:10104000184602B0704700BF7C00002000400340FB
:1010500008B50B4B93F8E0308BB9FFF77DFA094BDD
:1010600080221A60084B5A6F22F480725A675A68BD
:1010700042F004025A605A6822F004025A6008BD25
:101080007C00002000040E400040034000F07F027E
:10109000074B42F480729A60064A10B958600323E5
:1010A00002E001215960042382F8E030704700BF5C
:1010B000004003407C000020094A0A4B38B105215A
:1010C00082F8E0105A6842F002025A607047042128
:1010D00082F8E0104FF480725A60FFF77FB900BFCA
:1010E0007C0000200040034008B5FFF735FA064BAE
:1010F0005A6F42F400725A6720B12220BDE80840BE
:10110000FFF73ABA08BD00BF0040034008B5FFF73B
:1011100023FA0D4B5A6F22F400725A6710B1222045
:10112000FFF72AFA094B93F8E020022A02D902229B
:1011300083F8E02093F8E130022B03D9034B02221D
:1011400083F8E12008BD00BF004003407C00002080
:1011500008B5FFF72BF9FFF7FFF90C4B00215A6F89
:1011600022F400725A670A4A82F8E010022182F8DB
:10117000E110084A80211160FE225A614FF40052AA
:101180001A61BDE8084000F085B900BF0040034087
:101190007C00002000040E407047024B93F8E000F2
:1011A000704700BF7C00002007B50020009001467A
:1011B00002460346FFF793FD0EBD00230372437200
:1011C00080E8060070472DE9F04F05468FB00846CD
:1011D0000C4601F068F90B2800F24B81DFE810F0B3
:1011E000CC0003014901140149019B000C00490195
:1011F000C700A4003B012501204601F07CF902460E
:101200002046029201F07DF98246204601F051F914
:101210002B680646196A93F824B004460391FFF739
:10122000E7FE2B680399029A30B11D69D3F8149038
:10123000D3F81880DF6904E0D3F80880DF6893E80A
:101240002002013A062A00F21481DFE812F00700BA
:1012500014004800120112012A003C00284601F047
:101260009EF9864203D9284601F099F904460020E8
:101270000090294625E0484601F053F9864209D9F5
:10128000484601F04EF9EB790446B0FBF3F203FB5C
:1012900012030BB1002300E0794B00200090494677
:1012A00037E0B8F1000F00D1E3E0404601F077F9F4
:1012B000864203D9404601F072F9044600200090AE
:1012C00041462246D1E0002F00F0D380384601F09D
:1012D00028F9864217D9384601F023F90CE0DA459F
:1012E00000F2C78051F82A70384601F058F986425A
:1012F00009D9384601F053F9EB790446B0FBF3F213
:1013000003FB12030BB1002300E05D4B00200090B3
:1013100039462246AAE0204601F0F8F80090002065
:1013200001460246574BA1E0204601F0F5F804467D
:10133000FFF75EFE2B6808B15E6900E05E6820463C
:10134000FFF7BAFE2C721CB9204600F0B3F87DE01E
:101350000021304605AA0B4601F0EBF804AD01E090
:10136000FFF75EF955F8040F0028F9D1ECE70020EB
:10137000009005F1080177E0204601F0A0F810B1D7
:10138000022876D11DE0404B1880FFF731FE2B6814
:1013900008B1586900E058682B7A3BB101F0C5F8F4
:1013A00020B1394B1A8842F001021A806B7A23B1BE
:1013B000354B1A8842F002021A8000200090324910
:1013C0000FE0204601F077F82F4C002308286380B7
:1013D0004FD8FFF703FE08B10123638000202B499B
:1013E0000090022241E0204601F070F8064610B15C
:1013F00001283ED105E0204601F05DF8FFF7BCFD75
:1014000010E00020687222E0204601F05FF80646F6
:1014100018B101282DD1687218E0204601F04BF870
:10142000FFF776FD0096304612E0204601F059F8AD
:101430000646204601F05AF86B680146CBB19A5D2A
:10144000824203D09855304600F033F800200090D7
:101450000146024609E0204601F043F86B68014668
:101460003BB100200090591801220346FFF737FCDA
:1014700002E00020FFF7BEFD0FB0BDE8F08F00BF17
:10148000A91140008D104000600100206201002081
:10149000407A7047034B4FF400721A62024B0422E9
:1014A0005A6070470040034000E100E07047704719
:1014B0007047704740B1054B012283F85920002244
:1014C00083F85A2083F84020704700BF6401002051
:1014D00073B506460D4614460093012031462A4650
:1014E0002346FFF7C5FC7CBD73B506460D46144682
:1014F0000093022031462A462346FFF7F0FB7CBDCD
:10150000420710B5044602D50120FFF701FDA307ED
:1015100004D50220BDE81040FFF7FABC10BD10B59D
:101520000120FFF75BFD002814BF042400240220E3
:10153000FFF754FD08B144F00204204610BD08B581
:101540000C4B013983F8581001210022186083F8F0
:10155000591003F15C00084983F8402083F85420B7
:10156000DA619A8183F85A20FFF727FEBDE8084028
:10157000FFF7EEBD64010020185B400013B5044680
:1015800000F091FFFE2811D020D8012836D1204646
:1015900000F09CFF002831D11D4890F85A301BB94B
:1015A0005C302146FFF70FFE002020E063883BB946
:1015B000A08828B9E288012A02D10090154919E0D3
:1015C000002002B0BDE81040FFF714BD6388002B77
:1015D000F6D1A388002BF3D1E0880028F0D10C4B82
:1015E000012283F8592083F85A0083F840000090C4
:1015F000014602460346FFF772FB06E00648214615
:1016000002B0BDE81040FFF7DEBD02B010BD00BF64
:1016100064010020BC010020C0010020FFF7AEBF24
:1016200008B5FFF7BAFD042804D90348BDE808400F
:1016300000F019B808BD00BF6401002008B50448D7
:10164000FFF726FF18B1BDE80840FFF701BD08BD50
:10165000C001002010B504890134A4B20481418185
:101660000260436010BDF7B590F85920031D042AAD
:1016700004462DD005D8012A0DD0022A40F04C8115
:1016800016E0102A00F02581202A00F02C81082A7B
:1016900040F0428135E1002282811F2100F12000CB
:1016A0009E4AFFF715FF002840F0368102232CE107
:1016B00083899BB2002B00F02F818389013B9BB271
:1016C0008381C3899BB2002B40F0188104231CE165
:1016D00090F84030002B40F08780436A8364436871
:1016E0001F2B06D1836803B103E0026A8C498A424A
:1016F0000AD0012584F85A500620FFF701FF84F82C
:10170000505084F859506FE0019390F82D300268E2
:10171000856A03F00F03602101FB03232DB190F8CC
:101720002C60F643C6F3C01600E0022694F82F2082
:101730001B2A03D17B4A1178013111700DF103028C
:1017400004F12F0001A900F010FA0022E26484F8ED
:101750005020002848D0022E9DF803300BD1022BD8
:1017600002D184F8542004E0012184F8541003B914
:1017700027E0E26138E0C6B9022B03D184F8543087
:10178000E66118E063B9019B9D4205D9022284F805
:101790005420E361ED1A0EE022D184F8546022E077
:1017A000032384F85430E6611EE0022B05D10423A4
:1017B00084F85430E261E56416E023B9052284F828
:1017C0005420E36110E0019B9D4205D9042184F877
:1017D0005410E261E36407E002D184F8542002E08F
:1017E000012384F85430E56194F85070002F40F0E4
:1017F000938094F82D30226803F00F03602606FBD7
:10180000032694F85820934207DD06F14400032193
:101810002422002300F0A1F920E0211D304600F031
:10182000F6F90328054615D1052124223B4606F189
:10183000440000F092F9012384F8503094F92C30E0
:10184000002B03DBA36A0BB1042300E0022384F81E
:1018500054305DE00128D8D0042803D1012384F856
:10186000503055E006F1440039463A463B4600F018
:1018700074F9002D4CD04FE0E26CD318E36494F976
:101880002C30002B01DB042300E0022384F85430C9
:10189000002384F8403094F8543003F00203DBB2A4
:1018A0001BB10220FFF72CFE012394F8542002F014
:1018B0000402D2B21AB10420FFF722FE012394F8E9
:1018C0005420D20702D5022284F85020E3B1082325
:1018D0001BE0154A0D2140F8442F104AFFF704FE83
:1018E000D0B9202311E083899BB2ABB18389013B3E
:1018F0009BB28381C3899BB2032B00D0E389012370
:1019000003E0FFF70CFE38B9102384F8593003E0E8
:10191000E369002BB0D1BBE7FEBD00BF5516400008
:1019200055534243B86C002055534253F0B5484CD0
:1019300090F846700460F02480F8444007F0800777
:10194000002464F3C71780F846700A2780F84B70AC
:1019500090F85370069D07F0800764F3C717BDF831
:101960001C6080F8454080F8474080F8484080F887
:10197000494080F84A4080F8504080F8514080F853
:10198000524080F8544080F8537080F8564080F8F8
:10199000574080F8584080F8594080F85A4080F805
:1019A0005B4080F85C4080F85D40016311B980F8CD
:1019B0004310F0BD059C846316B1A0F840600AE0B6
:1019C000CC69B4F5007F3ABF4FF40076B6FBF4F46F
:1019D0000124A0F840400DB1C56301E04C6AC46326
:1019E0009DF820400CB1012403E091F84040C4F37D
:1019F00080148360099B42604363C26BB0F840303F
:101A000080F84240B2FBF3F2013A140E80F85640DF
:101A1000140C80F85740140A80F8584080F8592078
:101A2000CA695A43120E80F85A20CA695A43120CE6
:101A300080F85B20CA695A43120A80F85C20CA69A0
:101A4000534380F85D30102380F84330F0BD00BF71
:101A500000000020036B2BB193F84130012B04D020
:101A600000230363002380F8433018467047F7B51E
:101A7000B0F840405E186643C56BAE4218D8056B9F
:101A8000B5B190F84360112E12D190F842607EB942
:101A9000876B089804FB01710090099863430190DB
:101AA0002E682846B047002814BF0220002000E01E
:101AB0000220FEBDF7B5B0F840405E186643C56B26
:101AC000AE4215D8056B9DB190F84360112E0FD131
:101AD000876B089804FB017100900998634301909B
:101AE0006E682846B047002814BF0220002000E09E
:101AF0000220FEBD10B504890134A4B204814181E5
:101B00000260436010BD036B1BB190F843300F2B94
:101B10000DD890F84630022262F3030380F8463075
:101B20003A2380F85030002380F8513011E0102B18
:101B300011D190F84630062262F3030380F8463054
:101B4000282380F850301122002380F8513080F88B
:101B50004320184670470120704710B584780273FF
:101B600061F303048470437310BD70B504781D6B7A
:101B70001B2C42D00CD8032C23D002D8002C3CD0F4
:101B80003FE0122C4FF000030FD01A2C39D112E095
:101B9000282C1ED004D81E2C2FD0252C31D114E097
:101BA0002A2C1DD02F2C2CD127E01370C478037958
:101BB00043EA04231FE013700379042B1BD9042389
:101BC00019E000231370037915E000231370082334
:101BD00011E000241470C479007A40EA042005E082
:101BE00001241470C679007A40EA0620B3F8403028
:101BF0004343E86943430B6001E002231370012073
:101C000000E000200B680BB90223137070BD2DE9B2
:101C1000F34191F82B3004461B2B0D46076B00F067
:101C20000C840ED8032B00F0D78303D8002B00F0D0
:101C3000AD83A7E3122B00F052831A2B40F0A2834E
:101C40006CE3282B0ED006D81E2B00F00284252B27
:101C500040F0988329E32A2B00F088812F2B00F095
:101C600037838FE391F83C3033BB012381F83C305C
:101C7000FFF749FF002800F09381FB69B4F840109A
:101C8000AA694B43B2F5803F9BB2E261238404D33F
:101C9000B3F5006F38BF4FF4006363620122002385
:101CA000A38563856361A36184F829302B81E36098
:101CB000236184F82820AB82AE692EB9656B002DB4
:101CC00000F0F182012088E194F82830032B00F223
:101CD000D680DFE803F0020E505A2369E26993428E
:101CE00080F0CD80A2699B1AA268934280F0C780E1
:101CF000C2E097F8403013F0100808D0AB8A0133E7
:101D00009BB2AB820023EB82EB602B612FE095F856
:101D10002E1095F82D30090441EA0361666895F8A4
:101D20003030E268AF4895F82FE01943B218238CA1
:101D3000666A009005F10C00019041EA0E212046F0
:101D4000B6FBF3F3FFF7B6FE88B12046FFF7DBFEE4
:101D500058B194F84630022262F3030384F8463007
:101D6000042384F8503084F85180072385E002264C
:101D700084F8286084E0AB8A9BB2002B7FD0AB8ACA
:101D8000013B9BB2AB82032377E0EB8A9BB26BB142
:101D900094F84630012666F3030384F84630212385
:101DA00084F85030002384F8513069E097F84010EF
:101DB00001F01001C9B221B184F82830E369236130
:101DC0005DE095F82E0095F82DC095F8303095F827
:101DD0002F200004666AB4F8208040EA0C6C1202DE
:101DE0004CEA030C4CEA020CB6FBF8F80CEB0806C4
:101DF000360E104385F82D6018433606B4F820C01F
:101E000040EA0608606A1A43B0FBFCFC08EB0C00D1
:101E1000000C85F82E00B4F820C01643626AC0B2E8
:101E2000B2FBFCFC46EA00406044000A85F82F0043
:101E3000208C626AB2FBF0F29B1885F83030636A3E
:101E4000A068E268C01A82423CBF9A18E260226928
:101E500028BFE1609B18E2692361934201D300230C
:101E60000BE0E26863699A4206D1002384F82830C7
:101E7000A38D0133A38502E0012384F828300226D4
:101E800094F82930032B00F2F382DFE813F04801C5
:101E9000040031003B0097F8403003F01003DBB240
:101EA000C3B13B6AA26B95F82D10D21895F82E306D
:101EB000F8691B0443EA016395F830100B4395F869
:101EC0002F1043EA0123B4F8401001FB0323A96952
:101ED000584303E060686369616AC018414A2B4651
:101EE000FFF702FB00B110E0022384F82930BFE2C3
:101EF0002B899BB2002B00F0BB822B89013B9BB24C
:101F00002B815FE16B899BB263B194F84630042268
:101F100062F3030384F84630002384F8503084F8D9
:101F2000513088E297F8401001F01001C9B201B1B8
:101F300012E0636AA0686269C01A82423CBF9A18C4
:101F40006261A26928BF61619B18E269A361934243
:101F500004D3002384F82930AB6189E2E168626927
:101F6000914200D198E122699342DBE091F83C6014
:101F700066BB052381F83C30FFF7C5FD80B194F8BE
:101F80004230002B00F0678294F84630072262F35B
:101F9000030384F84630272384F8503084F85160D6
:101FA000042665E2B3F5006F38BF4FF40063636247
:101FB00001220023A38563856361A36184F829302E
:101FC0002B81E360236184F82820AB82AE695EB97F
:101FD000656B002D00F067813046E169628DA38D4D
:101FE000A84745E2F51A400094F82830072B00F284
:101FF0008C80DFE803F0040F414B8A8A8A862369CC
:10200000E269934280F08180A2699B1AA2689342A0
:102010007BD272E094F82930072B00D16EE097F85C
:10202000403003F02003DBB2C3B1A26B3B6A95F8EA
:102030002E00D31895F82D20000440EA026095F890
:102040003020E169104395F82F2040EA0220B4F8CF
:10205000402002FB0030FB69584303E06068E368FE
:10206000616AC018A94A2B46FFF732FA00B110E0A6
:10207000022684F8286049E02B899BB2002B44D0CB
:102080002B89013B9BB22B81032337E06B899BB2E9
:102090006BB194F84630042262F3030384F84630AF
:1020A000002384F8503084F8513001262EE097F850
:1020B000401001F02001C9B211B1E26922611DE0B6
:1020C000636AA068E268C01A82423CBF9A18E26064
:1020D000226928BFE1609B18E2692361934201D322
:1020E00000230BE0E26863699A4206D1002384F87A
:1020F0002830A38D0133A38507E0012384F828301D
:1021000003E02369F61AAE614AE7022694F8293003
:10211000032B00F2AD81DFE803F002084C57A269FF
:1021200023699A4280F0A481B4E097F8403003F02C
:102130002003DBB243B1AB8A01339BB2AB820023F5
:10214000EB82EB602B61CFE695F82E1095F82D30E1
:10215000090441EA036195F8303095F82FC019431E
:102160006A4867686269B4F820E0636A0C350090D9
:102170000195204641EA0C21BA18B3FBFEF3FFF7A4
:1021800076FC00283FF4B0AE2046FFF7BCFC10B14F
:1021900094F842305BB194F84630022262F30303B4
:1021A00084F84630002384F8503084F851300723F7
:1021B0009BE6AB8A9BB2002B00F05A81AB8A013BB5
:1021C0009BB2AB82032390E66B899BB243B194F838
:1021D0004630012666F3030384F846302623F5E0F3
:1021E00097F8401001F02001C9B209B1AB617CE65B
:1021F00095F82E0095F82DC095F8303095F82F20E1
:102200000004676AB4F8208040EA0C6C12024CEAC1
:10221000030C4CEA020CB7FBF8F80CEB08073F0E76
:10222000104385F82D7018433F06B4F820C040EAEB
:102230000708606A1A43B0FBFCFC08EB0C00000CBA
:1022400085F82E00B4F820C01743626AC0B2B2FB12
:10225000FCFC47EA00406044000A85F82F00208C0F
:10226000626AB2FBF0F29B1885F83030636AA068AE
:102270006269C01A82423CBF9A186261A26928BF93
:1022800061619B18E269A361934200D361E6226910
:10229000934201D2012328E6002384F82930638D7C
:1022A00001336385E4E02E46E2E0FFF72CFC0028D2
:1022B0003FF476AE95F83C3013B9052385F83C30F1
:1022C00095F83C30052B00D03DE004F156003EE08F
:1022D0007E69002E00F0CC803846B047B9E08E69A8
:1022E0004EB191F83C302BB9052381F83C3003689E
:1022F000053E1E71022695F83C30052B03D0062BB7
:1023000040F0B68004E02068A9697AE0F51A400040
:102310002B899BB2002B00F0AB8026E0FFF7F3FB8C
:1023200000283FF43DAE95F82D3003F03F033F2BDE
:1023300028D195F83C3013B9052385F83C3095F841
:102340003C30052B02D0062B1ED10BE04A48A96970
:102350004A4A2B46FFF7C8F800286CD1062385F8B7
:102360003C3011E02B899BB273B12B89013B9BB2AE
:102370002B816E89AB69B6B22A68003618BF012678
:102380009B1AE9E5032673E0022671E090F84330DA
:102390000F2B12D9102B05D1112380F843300622C0
:1023A00028230CE097F8413023B1012B14BF3A23C6
:1023B000002303E01A461E4602E03A2302220426C6
:1023C00094F8461062F3030184F8461084F8503004
:1023D000002384F851304BE0896931B195F83C30E5
:1023E0002BB9052385F83C3001E00E4600E00226BB
:1023F00095F83C30052B02D0062B39D10AE004F1C8
:1024000044001E4A2B46FFF76FF8A0B9062385F853
:102410003C302DE02B899BB253B32B89013B9BB2FF
:102420002B816E892B68B6B20036C3EB010118BF51
:102430000126A9611CE001261AE091F82F6016F030
:10244000010603D1012380F8433011E0102380F806
:10245000433000260CE0FB69B4F84010AA694B43F6
:10246000B2F5803F9BB2E2612384BFF49BAD9EE551
:102470003046BDE8FC8100BFAC5B4000F51A40006F
:10248000807800F00F0070478078C0097047C078EE
:1024900000F00300704780887047807970470078AB
:1024A000C0F341107047407870474088704780887B
:1024B0007047C0887047808800F00F007047007830
:1024C00000F00F0070470078C009704708B5FFF7AB
:1024D000ECFFC0B208BD08B5FFF7E9FFC0F3072065
:1024E00008BD08B5FFF7E3FFC0B208BD08B5FFF7A8
:1024F000DCFFC0B208BD08B5FFF7D7FFC0F3072067
:1025000008BD08B5FFF7D1FFC0B208BD08B5FFF799
:10251000CCFF00F07F0008BD08B5FFF7C6FFC0B2D2
:1025200008BD4088704700797047C079C0F38010BB
:1025300070472DE9F041B0F802800D4616461F465F
:10254000A8F1090804461CE0204600F02CF80446D7
:1025500000F025F8C0EB0808204600F022F8042817
:1025600003D175B145F8044B0BE0204600F019F893
:10257000052803D12EB146F8044B02E00FB147F80D
:10258000044BB8F1000FDFDC0DB100232B600EB15E
:10259000002333600FB100233B60BDE8F081007879
:1025A0007047407870470378C0187047F8B590F8C6
:1025B000414005460F46069EB4B9406A591881420B
:1025C0004FF0010013D8114685F841003A46DBB2BE
:1025D00001F040FF85F8414046B107982146224668
:1025E0002346B0472046F8BD0220F8BD3046F8BD6E
:1025F000F8B590F8414005460F46069EBCB9406AC2
:10260000591881424FF0010014D885F84100114655
:1026100020463A46DBB201F01DFF85F8414046B145
:102620000798214622462346B0472046F8BD02209F
:10263000F8BD3046F8BDF8B590F8414005460F4664
:10264000069EB4B9406A591881424FF0010013D870
:10265000114685F841003A46DBB201F033FF85F8B8
:10266000414046B10798214622462346B0472046BE
:10267000F8BD0220F8BD3046F8BDF8B590F84140ED
:1026800005460F46069EBCB9406A591881424FF074
:10269000010014D885F84100114620463A46DBB2C5
:1026A00001F010FF85F8414046B1079821462246C7
:1026B0002346B0472046F8BD0220F8BD3046F8BD9D
:1026C000274B10B5DB6B13F0800347D1254AC3605D
:1026D0000361836143610362234B02601B68234AE9
:1026E00013F0804F42604FF40072C261204B0DD056
:1026F00099685A680B0E02F03F021B0203EB02427C
:102700000132C1F307415218920214E05A689B68E3
:10271000D4B2990F013101EB8401C3F3C233C2F388
:10272000012401EB8421023301FA03F3C2F30342D3
:10273000093A03FA02F290F84030426203F08F0344
:1027400043F0800380F84030002380F841308362FA
:10275000C362036343638363012010BD002010BD87
:1027600000100E407B264000E8050020F1254000C7
:10277000FC0500204FF40072C2610F4B40F60302CB
:10278000426290F8402003600C4B02F08F024360DD
:1027900042F080020023C3600361836143610362EE
:1027A00080F8402080F841308362C3620363436352
:1027B00083630120704700BF37264000AD254000ED
:1027C000FEE7FEE7FEE7FEE7FEE7FEE7FEE7FEE7E1
:1027D000FEE7FEE7FEE7FEE7FEE7FEE7FEE7FEE7D1
:1027E000FEE7FEE7FEE7FEE7FEE7FEE7FEE7FEE7C1
:1027F000FEE7FEE7FEE7FEE7FEE7FEE7FEE7FEE7B1
:10280000FEE7FEE7FEE7FEE7FEE7FEE7FEE7FEE7A0
:10281000FEE70000152A2DE9F04705460CD80620F2
:10282000424303F00403DBB2D0B2002B00F09D80E2
:102830004000C0B2BDE8F0870630BF2AC0B24C4E9F
:1028400003D8052404FB0266A03E4A4FC90803F0E2
:10285000040C05EBC1115FFA8CFC7C1803F0010835
:10286000BCF1000F55D02E2A434B0DD005F10C00C2
:10287000BF2AC0B210D8422A08D0532A08D0552AFD
:102880000CBF0321002104E0002102E0012100E04F
:102890000221142505FB0133DFF8E0900521BF2A52
:1028A0000DD831B193F800C09E7A5F78DD7A01339C
:1028B00003E00F460E468C460D4601330BE031B166
:1028C00093F800C05E789F78DD78043303E00D460E
:1028D0000F460E468C46B8F1000F09D06FEA0C0C7B
:1028E000FF43F643ED435FFA8CFCFFB2F6B2EDB264
:1028F00004F1810ACA4507D284F800C0677084F8E1
:10290000806084F88150023411F1FF31C7D2BDE8F4
:10291000F08703F00803DBB24BB1B8F1000F14BF2E
:10292000FF230023681D7B540134C0B20123134DE3
:102930000022B15C0BB1012A08D0AC4206D2B8F13A
:10294000000F01D0C943C9B204F8011B0132052AA6
:10295000EFD10A4B9C4208D2B8F1000F14BF4FF0E0
:10296000FF084FF0000884F80080BDE8F08700BF42
:10297000B05B4000CC010020905D4000CC05002001
:102980000023FFF747BFF8B5D3180E469DF818701F
:102990001446DDB206E014F8012B32B131463B4655
:1029A000FFF738FFE3B29D42F5D1F8BD13B500241F
:1029B0000094FFF7E8FF1CBD70B50E4614461D4697
:1029C00014F8012B22B131462B46FFF723FFF7E71E
:1029D00070BD034600200A4619460346FFF7ECBFC8
:1029E0000023FFF7E9BFF8B500F1140406460F46CF
:1029F0001546E4B205F00F02053C092AE4B202D9FB
:102A00003732082301E03032002320463946FFF7F1
:102A100001FF2D09B442EDD1F8BD084A02F58063EB
:102A2000984209D292F8002403781AB1012A43EAA5
:102A3000010300D04B400370704700BFCC01002061
:102A4000CB08012201F0070102FA01F100EBC313E8
:102A50000248C9B2C018FFF7E0BF00BFCC01002098
:102A60002DE9F041141E04DAE4B220186442C0B229
:102A700064B2CD08012701F0070107FA01F70F4AF8
:102A800000EBC5155519FFB202F5806811E0454508
:102A900011D213F0010F4FEA630606D028463946DB
:102AA000FFF7BBFF46F0800300E0F3B2013C64B2E5
:102AB0000135002CEBD1BDE8F08100BFCC01002036
:102AC000C90800EBC11308491218CB18C01AD2B2BA
:102AD000C0B203E01978C94303F8011BC118C9B299
:102AE0009142F7D3704700BFCC010020FF23FFF7CE
:102AF000B7BF38B5141E04DAE4B261186442C9B233
:102B000064B2CD0800EBC510164D11F00701054465
:102B100019D0012202FA01F30C19083C64B2002C0E
:102B2000DBB201DB594204E004F1080102FA01F1D1
:102B3000C91AC9B2284603E0083C64B22846FF21FE
:102B4000FFF76BFF8035072CF6DC002C09DD012137
:102B500001FA04F4611E2846C9B2BDE83840FFF707
:102B60005CBF38BDCC010020024800214FF48062D8
:102B700002F0BCBCCC010020094980234B63094B07
:102B80004FF4805298631A63074A05201060106959
:102B90000828FCD94FF480525A6380230B63704796
:102BA000000E0E4000120E400000014070B50E4CA9
:102BB0000E4DE36B06465B0085F80134012385F872
:102BC00002340B4B81202361FFF7D6FF002E14BF88
:102BD00030462220FFF7D0FF3A236361636600236B
:102BE000A36385F8023470BD00120E40CC010020B2
:102BF000FFB0000C38B58020012101F0BDFD204B55
:102C0000204AD96B490082F80114012182F802148C
:102C10001D4A1E491A604FF480525A631C4A5A6377
:102C20004FF000621A631961FF21C3F8A0105A63C4
:102C3000184A0521116010460169164AC729FBD9B7
:102C40004FF0006119630523136046F6771311698D
:102C50009942FCD9104D0024285D0134FFF78CFF08
:102C60000C2CF9D1064B3A225A615A6600229A631B
:102C7000044B172083F80224BDE83840FFF796BFC5
:102C800000120E40CC010020FF100008FF30000CA5
:102C90000020000400000140E05D4000244B2DE9CD
:102CA000F0418022234E1A601A61F26B224B5200CF
:102CB00083F80124012283F80224204A03F18005CD
:102CC000326100241F4697F80304A5F1800800280C
:102CD0000CBF04200020FFF74FFF1020FFF74CFF30
:102CE00044F0B000C0B2FFF747FF114B80221A63D7
:102CF00015F8800C01224FF48051B063316318F84D
:102D000002000132812A0B4B7163F6D10134803508
:102D1000082CD8D1FF229A633A225A665A61FE22C1
:102D20009A63054B002283F80224BDE8F08100BFBE
:102D3000000E0E4000120E40CC010020FF30000CAF
:102D400010B5144C02F062F9FFF754FF012384F828
:102D50000334FFF709FFFFF7A1FF002384F80334D2
:102D6000FFF702FF1821552204233020FFF752FD00
:102D70001821532204233C20FFF74CFD1821422246
:102D800004234820FFF746FDFFF788FFBDE8104009
:102D900002F05AB9CC010020F8B503690C4601F1E4
:102DA0000901002B50D043690D461F7B002607F018
:102DB000080C5FFA8CFC9A5D2946202A11D0052A5E
:102DC00008BFE522BCF1000F05D0A2F1410119298D
:102DD00001D82032D2B2013605F8012B082E29463F
:102DE000E9D11A7A202A18D02A462E2107F0100796
:102DF00002F8011B0826FFB29D5D1146202D0CD064
:102E00002FB1A5F14101192901D82035EDB20136C4
:102E100002F8015B0B2E1146EED1DA7A22729A7F0C
:102E2000DD7F120442EA05621D7F2A435D7F42EA8C
:102E3000052222605D7E1A7E42EA0522A280DA7DAA
:102E40009B7D43EA0223E38000250D70A669EEB165
:102E5000E369DBB103690BB9002515E0028C4FF67D
:102E6000FF739A42F8D0C7690AE0002102F082F8A5
:102E70000028F1D0E369013B9D42EDD27055013548
:102E800037F815000028F0D100237355F8BD08B5B8
:102E900068B103785BB1C3888B4208D1407801F0F8
:102EA000CAFA10F0010F0CBF0020032008BD092052
:102EB00008BD38B5436A05468B420C460CD059B163
:102EC000407805F128012246012301F0C3FA08B930
:102ED0006C6238BD012038BD002038BD10B50446F5
:102EE0000A46407804F12801012301F0B3FA80BBBF
:102EF00094F8263294F8272243EA0222174B12B2A2
:102F00009A4228D194F8602094F86130120442EA81
:102F1000036294F85E301A4394F85F3042EA032269
:102F20000F4B22F07F429A4216D094F87C0094F81E
:102F30007D20000440EA026094F87A20104394F85F
:102F40007B2040EA022020F07F40C01A18BF0120F9
:102F500010BD032010BD022010BD00BF55AAFFFF09
:102F6000464154002DE9F04103681D78303D092D9C
:102F700005D85A783A2A02D10233036001E07C4B2B
:102F80001D78002D40F0E480794B5C680C60002CCB
:102F900000F0E18023784BB900202070607001F0D0
:102FA0003BFA10F0010540F0D98005E0607801F0AF
:102FB00042FAC207F0D4D4E020462946FFF78EFF3C
:102FC000012817D194F8EA3113B90D20BDE8F0813A
:102FD00094F8F05194F8F1312D0445EA036594F822
:102FE000EE3120461D4394F8EF3145EA032529468A
:102FF000FFF774FF032800F0B7800028E5D194F8AC
:10300000342094F8333043EA0223B3F5007FDCD157
:1030100094F83F0094F83E3053EA00200DD194F824
:103020004E0094F84F30000440EA036094F84C30AE
:10303000184394F84D3040EA032094F8381060614A
:103040004B1E012BE170C0D894F83520A270002AE5
:10305000BBD0531E1342B8D194F83A6094F839307B
:1030600043EA06239EB21B072681AED194F83C703A
:1030700094F83B3053EA07230DD194F84A3094F882
:103080004B701B0443EA076394F848703B4394F881
:10309000497043EA072394F8378094F8367057EA6A
:1030A000082892D001FB00FC08EB16176744BB42CE
:1030B0008BD3DB1BB3FBF2F3002B86D040F6F5720B
:1030C000934206D94FF6F5718B428CBF0321022142
:1030D00000E0012102337F1903294544236127625F
:1030E000A56113D1002E7FF470AF94F8562094F8A8
:1030F0005750120442EA056294F854509B002A4348
:1031000094F8555042EA0522E2610EE0002E3FF4A9
:103110005CAF65440229E56101D15B0005E0032253
:103120005A4303F0010303EB520303F2FF13B0EB26
:10313000532FFFF44AAF0E4A002013892170013348
:103140009BB21381E38060622071E060BDE8F08192
:103150000B20BDE8F0810C20BDE8F0810320BDE824
:10316000F0812846BDE8F0810120BDE8F08100BF74
:10317000D405002003690239023B994204D28278C7
:10318000036A02FB01307047002070470129F8B53F
:1031900004460D465CD90369994259D20378022B43
:1031A00028D0032B37D0012B4FD101EB5106816979
:1031B00001EB5621FFF77DFE00B146E0A169F30562
:1031C000013604EBD353204601EB562193F82870C7
:1031D000FFF76FFE002838D1F60504EBD65494F8BB
:1031E0002800E90747EA002001D50009F8BD0005DD
:1031F000000DF8BD816901EB1521FFF75AFE20BBD8
:103200002D06ED0D6319641993F8283094F8290000
:1032100043EA0020F8BD816901EBD511FFF749FEB3
:1032200098B96D06ED0D05F12803E318D8789A7862
:1032300000065B7840EA0240641940EA032094F8F3
:103240002830184320F07040F8BD4FF0FF30F8BD33
:103250000120F8BD70B504460D46E1808168012962
:1032600001D1022070BD03681A699142F9D271B987
:103270001A78032A01D1D96949B90022E2601A8972
:10328000AA42EED9DB6903EB1513236119E09E789E
:1032900036010DE02068FFF779FF0146013019D0B3
:1032A0000129DED923681B699942DAD2AD1BADB280
:1032B000B542EFD2E1602068FFF75CFF00EB15102C
:1032C0002061236805F00F05283303EB4513636184
:1032D000002070BD012070BD70B5C5880446013561
:1032E000ADB20DB9042070BD0369002BFAD015F002
:1032F0000F061CD1C16801330361006819B9038945
:10330000AB42EFD913E08378013B13EA15130ED1DA
:10331000FFF73CFF0128014611D9431C11D020685A
:1033200003699942DED2E160FFF724FF2061236840
:10333000E580283303EB46166661002070BD02204D
:1033400070BD012070BD2DE9F0474FF0FF08054624
:1033500044460420434E4FF6FF776FE02868FFF79E
:10336000A8FD00286ED16B691A78002A76D093F8F0
:103370000BC0E52A0CF03F015BD00CF0080C5FFAA3
:103380008CFCBCF1000F02D00F2952D101E00F29B3
:103390003ED102F04001C9B231B1E98893F80D8005
:1033A00002F0BF04298401E0A24242D15A7B424587
:1033B0003FD11A780D2102F03F02013AD5F81CE006
:1033C0004A434FF0010C002111F8069003EB09006D
:1033D00090F801A013F8090040EA0A20BCF1000FA0
:1033E00006D0FE2A25D82EF812008446013201E0CC
:1033F000B8421ED101310D29E6D11B7803F04003FC
:10340000DBB21BB3FE2A14D800232EF812301DE0C5
:10341000FCB9014602465C5C013104EBC21404EBCA
:1034200052020B2902F0FF02F5D1904511D1BDE8FF
:10343000F087FF242846FFF74FFF18B929690029B4
:103440008CD168B100232B61BDE8F087013CE4B268
:10345000F0E74FF6FF732B84BDE8F0870420F1E717
:10346000BDE8F087EC5D40002DE9F74F0B7804468E
:103470002F2B0F4601D05C2B02D10137002301E036
:103480000368DB68A3603B781F2B06D82046002129
:10349000FFF7E0FE00236361EEE1D4F81CB00023E7
:1034A000F85C5D1C1F2819D92F2817D05C2815D06F
:1034B000B5F5807F00F0DA81012101F05BFD002885
:1034C00000F0D4817F2800F29781AF4A12F8013FC3
:1034D000002B00F091818342F8D1C7E17F191F28AA
:1034E00094BF04250025012B1E4600D10AE0022BC3
:1034F00004D1BBF802202E2A01D103E01E460BEBBB
:1035000043031BE0BBF800202E2AF8D100222BF841
:103510001320A1699A422CBF20202E20885401320A
:103520000B2AF6D1A36945F020059FE033F8022D60
:10353000202A02D02E2A40F06581013E002EF5D1CE
:1035400094E1C25401330B2BFBD14FF0000A3BF83E
:103550001A20202A00F05E812E2A00F05B81BAF149
:10356000000F01D045F003050B4633F8022D2E2A3B
:1035700040F0538154E13BF81A000AF1010A002897
:103580004ED0202804D02E2805D1B24500F07081FD
:1035900045F00305EFE79A4202D2B24513D167E145
:1035A0000B2B03D145F003050B2339E0B24502D0C4
:1035B00045F0030534D84FEA89095FFA89F9B24624
:1035C0000B230822D7E77F2810D90021019200930E
:1035D00001F0D0FC019A009B18B16C49081810F852
:1035E000730C45F00205002800F01E81DFF8A0E111
:1035F0001EF8011F002900F028818142F8D113E153
:1036000049F0020908E0A0F1610189B2192903D843
:10361000203849F0010980B2A16988540132AAE733
:10362000A2691178E52901D105211170082B04BF89
:103630004FEA89095FFA89F909F00C030C2B03D0D2
:1036400009F00302032A01D145F0020505F0020248
:10365000D2B252B909F00309B9F1010F08BF45F020
:103660001005042B08BF45F00805A369DD72F3E0DF
:1036700020682169FFF71DFC002840F08C806669F6
:1036800096F800B0BBF1000F00F08480F27ABBF135
:10369000E50F02F03F036FD002F00802D2B212B180
:1036A0000F2B69D101E00F2B4ED1D4F81C80B8F15B
:1036B000000F62D00BF04003DBB233B1E38896F821
:1036C0000D900BF0BF0B238401E0AB4554D1737B0D
:1036D0004B4551D135780D2305F0BF05013D5D43C4
:1036E0004FF0000A0123294A1AF802E006EB0E0007
:1036F00090F801C016F80E0040EA0C2073B101F0FA
:1037000057FCFE2D034637D838F81500009301F01A
:103710004FFC009B83422FD1013503E04FF6FF7130
:10372000884229D10AF1010ABAF10D0FDBD13178B3
:1037300001F04001C9B200297AD0002B78D038F8C6
:103740001530002B74D017E0002D75D102460346CA
:10375000B15C013201EBC31101EB53030B2A03F0FF
:10376000FF03F5D1994567D115E00B2B13D0F55C1C
:10377000D15C01338D42F8D0FF252046FFF7ACFD28
:1037800000283FF475AF06E04B694000EC5D400057
:10379000546940000420A369DB7AA0B104286BD1EE
:1037A00003F02002D2B203F004003AB10023A36078
:1037B000636100283FF471AE00205DE0002814BF73
:1037C0000420052058E003F00403DBB2002BF3D102
:1037D0006369DA7A02F01002D2B25AB1597D1A7DC9
:1037E00042EA0122D97E9B7E43EA012343EA024357
:1037F000A36052E605203FE00BEB450323F8020CE3
:103800002B464DE600230BEB46012BF81630A06942
:10381000202296E60AF1010A99E6013E7FF4A5AE60
:10382000002208239146A6E645F003055F20F3E653
:103830000BF1FF35EDB2A0E74FF0FF322284A26911
:10384000D37A13F0010392D096E7A0F1410189B237
:1038500019297FF6D5AED6E620460021FFF7FAFCFF
:10386000002898D14FF0FF094D4601E7062003E0FC
:103870000B2B7FF4A0AE95E6BDE8FE8F37B5002494
:103880000D5D055501340B2CFAD1052B0BD9023AED
:1038900032F8021F01EBC33189B201EB53035188A7
:1038A0009BB20029F4D1072203F00F0404F1300188
:1038B000392988BF04F137010DF80210013A1B09BC
:1038C000F2D102ACA1187E2401F8084C934202D038
:1038D000C15C20290DD1072A05D802ACA11811F826
:1038E000081C013200E02021C1540133072BF2D91A
:1038F00001E00133EAE73EBD48B9064A536803B127
:10390000187009B100230B705160002070470B2024
:10391000704700BFD405002030B50023ADF50F7D02
:1039200003600191044605A901A81546FFF71AFB9B
:1039300002AB0B930EAB0C9318B905A80199FFF7D6
:1039400093FD0A9B48BB2BB1DA7A02F01002D2B287
:1039500012B903E0062020E004201EE005F0010576
:10396000A5711A7D597DDD7E42EA01219A7E42EAE7
:10397000052242EA014222619A7FD97F120442EA7B
:103980000162197F5B7F0A4342EA0323E360059BE0
:10399000A0602360DB88A061A3800DF50F7D30BDA2
:1039A0002DE9F84F0446994600238846C9F80030AF
:1039B0000068A1881746FFF76AFA0546002878D103
:1039C000A379180672D4D90772D5E068A368C61A1D
:1039D000B74238BF3E4666E0A368DA0539D12068B1
:1039E00090F802B00BF1FF3B0BEA532B1BF0FF0BDF
:1039F0000CD10BB9206902E06169FFF7C7FB012810
:103A000000D80AE0421C00D130E06061D4F800A088
:103A100061695046FFF7AEFB20B9A37963F07F03DD
:103A2000A37143E0770A00EB0B0211D09AF8023041
:103A300007EB0B01994288BFCBEB03079AF8010013
:103A40004146FBB200F006FD00B10FE07F0220E02E
:103A5000A261A7682068FF05FF0DC7F50077A1697F
:103A6000BE4238BF3746FFF724FA28B1A3790125B3
:103A700063F07F03A3711CE0A368DA05D20D23680D
:103A800028329B1803E01A5C08F800200130B84285
:103A9000F9D1A368B844DB19A360D9F80030F61B4C
:103AA000DB19C9F80030002E96D102E0022500E0B3
:103AB00007252846BDE8F88F10B50446A1880068A0
:103AC000FFF7E5F900B9206010BD10B9024B18707E
:103AD00070470B20704700BFD405002010B5ADF52E
:103AE0000E7D019005A901A8FFF73CFA20BB02ABAF
:103AF0000B9305A80EAB01990C93FFF7B5FCB0B979
:103B00000A9B13B9059A079B0FE0DA7A02F01002BC
:103B1000D2B282B15C7D197D059A41EA0421DC7E36
:103B20009B7E43EA042343EA0143D36004E0042874
:103B300008BF052000E005200DF50E7D10BD2DE924
:103B4000F043ADF5177D0DF1040800230DADC8F865
:103B500000000F46037029464046FFF703FA064669
:103B6000002840F0938002ABAB6116ABEB612B6891
:103B70003C46DB68AB6064E028460121FFF76AFB46
:103B8000002866D12846FFF7DEFB014600285ED1FB
:103B90006B69587D1A7D42EA0022D87E9B7E43EAFB
:103BA000002343EA02432846AB60FFF753FB00289B
:103BB0004FD12846FFF7C7FBF0B96B69597D1A7DD5
:103BC00042EA0122D97E9B7E43EA012343EA024373
:103BD00099450CD1D8F8003005A928460B930C94D0
:103BE000FFF7DAF8D8F800100B7863B909E0284637
:103BF000FFF772FB0028DCD0042814BF064602261B
:103C00002AE00DF11D01002300E00133CA5C002A07
:103C1000FBD1DA1C94421ED3181BC3EB040C2246C2
:103C2000091806E0013A11F80290D8F8000000F8EF
:103C300002906245F6D1DB43E418D8F800302F2219
:103C40001A55D5F80890B9F1000F95D104E0064651
:103C500002E0064600E0112601A90B68A6B90E4A4B
:103C6000127830321A703A22BC425A7003D12F2295
:103C70009A70033308E09A1C0B681B5D013402F84C
:103C8000013BBC421346F7D300221A7030460DF5B3
:103C9000177DBDE8F08300BFD4050020F8B50446C9
:103CA0000D460068A188FFF7F2F80646002856D1B5
:103CB00094F90630002B51DBE3689D4228BF1D4676
:103CC000A368A0600DB9002540E0226897787F02C4
:103CD0006BB1013B691EB1FBF7F1B3FBF7F2914207
:103CE00005D37A421340A360ED1A616901E02169AE
:103CF00061610029E7D017E02068FFF747FA431C0D
:103D0000014605D1A379012663F07F03A37126E064
:103D1000012814D923681B69984200D30FE0A368D7
:103D20006061DB19A360ED1BBD42E5D8A3685B1998
:103D3000A360EB05C7D02068FFF71CFA20B9A37970
:103D400063F07F03A37109E000EB5525A368DB0551
:103D500005D0A3699D4202D0A56100E0022630464D
:103D6000F8BD10B50446ADF5067D019101A82146C8
:103D7000FFF7F8F848BB03ABA36106ABE36120464D
:103D80000199FFF771FB90B96369B3B1DA7A02F078
:103D90001002D2B27AB1597D1A7D42EA0122D97E4F
:103DA0009B7E43EA012343EA0243A36005E0042823
:103DB00008BF052009E0052007E023682046DB88CE
:103DC0000021A380FFF746FAF1E70DF5067D10BD4F
:103DD00070B50446ADF5047D0E460068A188FFF776
:103DE00056F80546F0B926B920462946FFF732FABB
:103DF00017E001ABA36104ABE3612046FFF7A3FA30
:103E0000042801D1256100E058B920463146FEF76B
:103E1000C3FF2046FFF760FA042802D10023236184
:103E200000E0054628460DF5047D70BD08B18028E8
:103E30000AD14FF08043DA6800F0C00022F0C002DF
:103E40001043D860002070474FF0FF3070474FF0AC
:103E50008043596810B521F0FF0180B10E4B1A68FC
:103E60005208B2FBF0F300FB132020B15A1C93421E
:103E700038BF134601D31BB1FFE7013B00E0034607
:103E8000054A4FF0804410685A1C40080B43636099
:103E9000B0FBF2F010BD00BFE8570020094BDB6B10
:103EA0001B060DD44FF0804211614CF2503350612B
:103EB000116CC90702D4013BFAD101E00020704720
:103EC0000120704700100E40024B41F27700196844
:103ED000FFF7E4BFE005002000200146FFF7DEBF4A
:103EE00038B5074C0546216841F24D00FFF7D6FF73
:103EF00020B94FF080431B6A2B60636038BD00BF60
:103F0000E005002041F648004FF4D571FFF7C6BF29
:103F100008B50E4BDB6B180615D4FFF7D5FF0C4B1D
:103F20004FF08042136141F26903536147F230530D
:103F3000116CC90701D4013BFAD14FF08043186AD4
:103F4000044B986008BD002008BD00BF00100E4063
:103F500000803F40E005002008B541F282000021CA
:103F6000FFF79CFF50B94FF08042116A044BD960B3
:103F7000516A1961916A5961D26A9A6108BD00BF9C
:103F8000E005002008B541F243000021FFF786FF5D
:103F900020B94FF080431A6A014B1A6008BD00BF78
:103FA000E005002010B5094C41F289002168FFF7B7
:103FB00075FF48B94FF080431A6AE2615A6A22627B
:103FC0009A6A6262DB6AA36210BD00BFE00500204E
:103FD000024B41F2C7001968FFF760BFE0050020FF
:103FE0002DE9F843194B0646DC6B14F0800425D10B
:103FF000FFF76AFF164A4FF080439A61154ADFF8CF
:1040000058801C6125465A611F464CF250393B6C62
:104010009B0706D5386BFCF75FF804F1805446F82F
:10402000040B3A6C0C4B1340434503D001354D450E
:10403000EDD106E045EA0400BDE8F8830020BDE8C4
:10404000F8834FF080431B6C3360F3E700100E40A1
:10405000010008007310050001000008064BDB6B2F
:10406000190606D4054BD86AB0F1080250425041F7
:1040700070470020704700BF00100E40E005002090
:104080000B4BDB6B1B0610D40A4A4FF080439A613E
:104090004FF400721A6102F565625A611A6CD0071A
:1040A000FCD54FF08043186A70470020704700BF6E
:1040B00000100E400100000238B5154BDC6B14F007
:1040C000800401D0002421E0FFF7FEFE4FF0804382
:1040D00002221A6141F246025A610E4A196CC9075E
:1040E00006D401349442F9D1ECE7FFF7C9FF0DE0A3
:1040F000094D8020FFF79AFE2B6B0848834238BF9A
:104100001846FFF7A4FEAB685A00EED4204638BD2F
:1041100000100E40E0930400E005002040548900A8
:1041200038B5374BDA6B194612F0800F354B02D099
:104130000022DA621A60DB6A324C072B5ED8DFE8B5
:1041400003F004090F151B212848CB6B180655D422
:1041500001231CE0FFF7C0FE00284FD1022316E028
:10416000FFF7D0FE002849D1032310E0FFF7D0FE6F
:10417000002843DA04230AE0FFF7EEFE00283DD1D1
:10418000052304E0FFF7FEFE002837D10623E36293
:1041900038BDFFF707FFE1691B4AC1F3C303D35CD6
:1041A00001F0070142F2107253434A1E09B10A217D
:1041B0004B43511E0AB10A22534309B10A22534309
:1041C000104C2363FFF704FF0723E36205236363B7
:1041D00038BD0C4D05F13800FFF702FF48B9A36B5D
:1041E000A364E36BE3640823E362BDE83840FFF7B0
:1041F00063BF6B6B013B6B63002BF0D038BD00BF1E
:1042000000100E40E00500207C5E400037B5002322
:1042100004460D460193FFF721FF08B9002036E060
:1042200001A8FFF75DFE019B03F4F853B3F5106F8F
:10423000F6D11C4A4FF080439A61596844F2FF72EC
:104240000A4042F0007242F418425A60164A9268DC
:10425000520058BF640280221C61C3F80051C3F8A9
:1042600004210122C3F82021104A40F236545A6139
:104270004FF0804505E0962000F0F8FE2B6C5B06C1
:1042800004D4013CA4B2002CF5D1C7E701204FF0C3
:1042900080430222C3F820215A6822F400425A6067
:1042A0003EBD00BF01000002E005002051100500E6
:1042B00037B5002304460D460193FFF7CFFE08B93A
:1042C000002037E001A8FFF70BFE019B03F4F85331
:1042D000B3F5106FF6D11D4A4FF080439A615968CB
:1042E00044F2FF720A4042F0007242F418425A60EF
:1042F000174A9268500058BF640280221C61C3F8BC
:104300000851C3F80C21134A40F236545A614FF455
:104310008072C3F820214FF0804505E0962000F020
:10432000A5FE2B6C990604D4013CA4B2002CF5D157
:10433000C6E701204FF080434FF40072C3F82021FC
:104340005A6822F400425A603EBD00BF01000002DC
:10435000E00500205810010008B5024609B91349CC
:1043600002E0012905D112494FF4007201F074F8FE
:1043700019E0022901D10F49F6E7CB1E9BB2B3F534
:10438000806F04D21846114600F0EAFC0BE0B3F54A
:10439000006F03D2590201F56011E5E700214FF4E7
:1043A000007201F0A3F8012008BD00BF8C5E400040
:1043B0008C6040008C62400002292DE9F0410546E6
:1043C000164624D9033989B2B1F5806F02D200F0C4
:1043D0006FFD1CE0B1F5006F19D20E4F4C0204F5D1
:1043E0006014B8469EB1BC4203D92046294600F06D
:1043F00061FE04F58070404503D905F5807100F039
:1044000059FE04F5007405F50075013EEAE7012048
:10441000BDE8F081FF7F4000012808B507D040B912
:10442000FFF71CFE00280CBF0320002008BD002061
:1044300008BD012008BD012808B507D040B9FFF725
:104440000DFE00280CBF0320002008BD002008BD81
:10445000012008BDF8B50C4615461E463BB30128A1
:104460000DD19E18F6B22046A9B2FFF775FF10B322
:104470000135EBB29E4204F50074F4D11DE0B0B9F1
:10448000FFF7ECFDA8B176190D4FF6B2284621468C
:10449000FFF7BCFEB7F850300133A7F8503050B1E9
:1044A0000135EBB29E4204F50074EFD105E0042023
:1044B000F8BD0320F8BD0120F8BD0020F8BD00BF05
:1044C000E0050020F8B50D4614461E4623B301282A
:1044D0000BD1084691B21A46FFF76EFF10F0FF0F9E
:1044E00001D10020F8BD0120F8BDA8B9FFF7B6FD45
:1044F000A0B136190A4FF6B220462946FFF7D8FE7A
:104500003B8801333B800028EDD00134E3B29E426A
:1045100005F50075F0D1E4E70420F8BD0320F8BDEF
:10452000AC6C0020012810B509D1012903D046D375
:1045300002293CD010BD40F6030313603FE0002881
:1045400039D1052939D0032935D8DFE801F03802FF
:1045500030361C4B197F8911012993F8241007D19B
:1045600093F82530013303EB012189B289021CE065
:1045700093F8230093F826408000013000EB91115E
:1045800093F8220000F0030001EB802193F8210052
:1045900093F8253000F00F0000EBD41003F0030374
:1045A00000EB4303073B01FA03F1116007E04FF40E
:1045B0000073138003E0042010BD012010BD002013
:1045C00010BD00BFE0050020014B1870704700BF10
:1045D00034060020024B002218781A70704700BF82
:1045E00034060020037810B55C0004F01E0401B905
:1045F00001E044F0010464F30303037043780133E2
:10460000437083785BB10178090708D1632B03D02D
:10461000264B42F020011970002343708370837889
:10462000082B29D006D8012B2DD00ED3022B23D056
:10463000042B03E05F2B15D002D8102B34D11BE0E4
:10464000612B09D0622B2FD127E0037803F00F03F1
:104650000F2B29D1612324E0144B42F060021A7021
:104660005F231EE04378202B02D162F07F0211E02D
:10467000282B19D1102314E041782F2903D95B107E
:1046800083700023437081784378013919420BD13C
:1046900042F04002054B1A7010BD43783F2B03D9FE
:1046A000082383700023437010BD00BF3406002030
:1046B00000F00F03062B07D8044A032000FB032059
:1046C0006223837000234370704700BF35060020CB
:1046D00000F00F00062809D803225043044B632141
:1046E0001A1891701A5C6FF305121A54704700BFC4
:1046F000350600202DE9F04100F0ADF81C4BC04319
:104700009B7DC0B200F07E0273B303F078010842D3
:104710002AD009E000F00803DBB213B900F010035F
:1047200002E0082300E0602343F006041440104A2E
:10473000937500F003F908B144F080040D4E002297
:1047400003274FF00108551C08FA05F3234207FB25
:1047500002600CBF00210121D2B2FFF743FF072DF9
:104760002A46F0D1BDE8F08110F0600FDBD1D1E72F
:10477000340600203506002010B5C1F38112204B0D
:1047800001F004045202A4B2D3181CB1C3F8900083
:10479000586600E0186601F00804A4B21CB118665F
:1047A000C3F8940001E0C3F8900001F48074A4B24F
:1047B0000CB1186300E0586301F00204A4B20CB11C
:1047C000586100E0186101F01004A4B214B11C6F2C
:1047D000044302E01C6F24EA00041C6701F020047B
:1047E000A4B214B15C6F044302E05C6F24EA0004DD
:1047F000C9075C674ABF024B5860D05010BD00BF6C
:10480000000E0E40064B3B221A6001221A613A222A
:104810005A615A66A3F5007320225A661A607047DF
:1048200000120E4008B507210648FFF7A5FF30200B
:104830004721FFF7A1FF04488721BDE80840FFF7A3
:104840009BBF00BF87808001004911914FF48040D9
:104850004721FFF791BF124B1B7813B1114B1B7807
:1048600002E0114BDB6B5B0003F02000590748BFEF
:1048700040F01000DA0648BF40F0400059060A4BED
:1048800048BF40F00800DB6BDA01084B48BF40F03E
:104890000400DB6B9B0648BF40F00200704700BF7E
:1048A000CE050020CD05002000120E4000100E4065
:1048B000144B154ADB6BD06BDA01144A80F0100000
:1048C000D16BC0F3001058BF40F00400490558BF39
:1048D00040F02000D90758BF40F040001B02D36BC6
:1048E000084A58BF40F00200D26BD90058BF40F0D0
:1048F0000800920758BF40F010009B0558BF40F0D9
:1049000080007047000E0E4000100E4000120E4056
:1049100008B5094B4FF460521A61FFF797FFFFF794
:1049200071FFFFF77FFF42F2107300BF013BFCD124
:10493000BDE80840FFF7BCBF00040E40024BD86B37
:10494000C0F30020704700BF00120E4008B54FF0C2
:104950007C402221FFF710FF42218020FFF70CFF4F
:10496000104B1A6942F480221A614FF08043802272
:104970001A600A221A604FF0FF329A647F229A600E
:10498000DA61094A1168094AB1FBF2F2013A42F4CC
:10499000E06292B25A600022DA6005221A601122A7
:1049A0005A6508BD00040E40E857002000350C0091
:1049B000704770B5344B86B0DB6B13F0007256D085
:1049C000324B93F88830002B3FD1314B314ADA62B9
:1049D0009A6E5207FCD52E4B40F201129A630021C9
:1049E0002A48FDF76DFE00212B48FDF7C3FEFFF7B7
:1049F00035FB264D294E0024A04214BF29462146EE
:104A000005F5A67205F18C004FF4C0530094019493
:104A1000029403940496FCF789FF4FF4C053204A94
:104A200005F1EC0005F14401009401940294039413
:104A30000496FCF77BFF05F18C000221FCF77FFD5B
:104A4000FCF752FB012385F88830164B93F85C2F56
:104A500012B9012283F85C2F93F85C3F93B13224A2
:104A6000FCF7DEFD631E13F0FF04F9D10AE00D4BE5
:104A700093F85C1F09B183F85C2F0022C3F8602F04
:104A8000C3F8642F06B070BD00120E404C06002023
:104A900000040E40013F070090060020B14940008D
:104AA000981F00203C280020034B93F8CF0093F878
:104AB0002F3143EA002070474C0600200A4B38B1E2
:104AC00093F8CF20012A05D8112283F8CF2001E0E6
:104AD00083F8CF0093F82F31012B03D1024B112221
:104AE00083F82F21704700BF4C06002000231A4690
:104AF000C15C0133072B0A44FAD1C079131A58421A
:104B000058417047134B012210B51A609A681C4631
:104B1000D86042F2117201E0013A04D020690D4BD5
:104B200010F0010FF8D019B902221A60986810BD70
:104B30009A680022DA60074942F2117301E0013BF2
:104B400004D00A6912F0010F024AF8D00223136060
:104B5000906810BD0080004005200121FFF7D2BF02
:104B600006200021FFF7CEBF10B5044C013C03D056
:104B7000FFF7F2FFC207F9D410BD00BF41420F009A
:104B8000F0B51A4D01232B600024AB6842F2117C72
:104B900023462E4611E0013B02D11EE042F2117382
:104BA0002F6917F4007FF6D00FE00133634517D06B
:104BB0002F6917F0010FF8D00BE09442EED142F2CA
:104BC0001072934298BF00230BE0035DF360002353
:104BD000EEE7B7680F550134EFE74FF6FF7300E0DB
:104BE000034B024A022111601846F0BD00800040CC
:104BF000FFFF0200F0B5042B059E47D8244C012589
:104C00002560A5682569234DC4F80051C4F8043116
:104C10002AB1C4F810214025C4F8146101E04FF412
:104C20000075C4F808011A4FC4F80C3111B1C7F867
:104C3000181101E0C7F81821154B40F20112C3F812
:104C40001C61C3F820214FF47A72196911F40071C4
:104C500007D0013AF9D1134604E00133834203D16E
:104C600006E00B460A490C480A691542084AF4D086
:104C70000A480221116091688342116940F20221C1
:104C8000C2F8201194BF00200120F0BD0448F0BDFF
:104C900000800040A437002041420F0040420F0036
:104CA000FFFF040008B5FFF75BFF074939230B71CD
:104CB00000234B718B71CB71081D04221C31BDE8A0
:104CC0000840FFF75DBF00BFA437002073B5154C47
:104CD000666B36BB144B01251A6942F400121A6147
:104CE000D3F8702A22F4F042C3F8702AD3F8742A59
:104CF00022F4F042C3F8742A4FF4F042C3F8042AB5
:104D00000A4B0B4A5A600B4A1A63FFF729FF01A8A6
:104D1000014602228DF804508DF80560FFF730FF40
:104D200065637CBDA437002000040E400080004075
:104D3000110000140915180113B5084B044603208F
:104D40001871100C5871100A9871DA71181D0091C1
:104D5000224600210423FFF74DFF1CBDA43700208D
:104D6000420208B508464FF40071FFF7E5FF012045
:104D700008BD73B5144605460E46FFF7F1FE0A4816
:104D800002220271220C4271220A8271C4712946E8
:104D90000096043000220423FFF72CFF02B0BDE888
:104DA0007040FFF7E1BE00BFA43700200023C25CC3
:104DB000FF2A05D10133B3F5805FF8D10120704798
:104DC000002070470023C25CFF2A05D10133B3F5F0
:104DD000807FF8D1012070470020704738B5094D19
:104DE00004464FF4805128462246FFF7A5FF0648A7
:104DF00029464FF4805200F02FFB044BC3F8404F7C
:104E000038BD00BFDC370020DC4700209C48002074
:104E100010B50446FFF7A4FE084920230B71230CAC
:104E20004B71230A8B71CC71081D04221C31FFF7D2
:104E3000A7FE0446FFF798FE204610BDA4370020C9
:104E4000F8B51748FFF7B2FF164C50B9D4F8400F29
:104E5000FFF7DEFFA4F1C000FF214FF4805200F005
:104E600045FBD4F8404F104F04F580563F1B3D19C9
:104E70002846FFF7A7FF28B928464FF4807122463D
:104E8000FFF777FF04F58074B442F0D1054B4FF083
:104E9000FF32C3F8402F054B00221A70F8BD00BF47
:104EA000DC4700209C480020DC370020806A00207E
:104EB0002DE9F047074615460E46294C31B9FFF754
:104EC00015FE08B1266001E0012323602368002B52
:104ED00043D1FFF7E7FE234A7602D2F8403F6D0246
:104EE00026F47F64591C24F00F04904603D0A3429B
:104EF00001D0FFF7A5FFD8F8403FA34202D02046DB
:104F0000FFF76CFFDFF85C80DFF86090DFF860A0EF
:104F100021E0D8F8403FA34202D02046FFF75EFFD1
:104F200004F580513205891B09EB1252A94228BFB2
:104F30002946002302E0F85CD05401338B42FAD1B9
:104F4000F618ED1AD318534502D9FFF779FF02E09E
:104F5000054B1E221A70002DDBD10120BDE8F08721
:104F6000700000209C480020806A0020DC37002070
:104F7000DB4700207F2810B516D931B1FF2812D8A1
:104F80000A4B803833F8100010BD084A32F811403F
:104F90008BB2844203D001318029F7D10B4603F153
:104FA0008000C0B210BD002010BD00BF8C64400066
:104FB00010B50023074A5C0002F5807131F8131028
:104FC00031B1884201D00133F4E71219B2F8E0029E
:104FD00010BD00BF8C6440008B2108B54FF4003039
:104FE000FFF7CAFB4FF480700721BDE80840FFF7C8
:104FF000C3BB024BD86BC0F34040704700120E4059
:105000004FF480700121FFF7B7BB00BF0C4B0221AA
:105010001A6942F400021A610A4B0022C3F8C02048
:10502000C3F8C41048F2010159604FF6F071D9611C
:105030005A6148F240025A6005221A60704700BF68
:1050400000040E4000000140014B02221A6070472C
:1050500000000140044B05221A6048F69F4219697E
:105060009142FCD9704700BF000001401223584311
:10507000034B052280B21A601A698242FCD3704742
:105080000000014002680A4B1340B3F1005F0DD1EC
:105090004368DB0CDB04B3F5800F07D18068C00CDC
:1050A000C004B0F580035842584170470020704753
:1050B0000030FEFFB0F5810F38B504460D4608D12B
:1050C0000846FFF7DFFF104B08B1002200E0012285
:1050D0001A600D4B1B68ABB90C4A0D491268C4F33A
:1050E0000A200A60E958E1500433B3F5807FF9D112
:1050F00072B6010241F0B441002041F00301904733
:1051000062B638BD012038BD740000200800800060
:10511000E057002008B5064B064A1B68136072B6BC
:1051200000200549984762B6044BD86808BD00BF07
:1051300008008000E05700200A00005A000A0E40D4
:105140000A4A38B512680A4B00241A601D4672B626
:10515000210241F0B4412A68002041F00901904742
:1051600062B68034B4F5006FF1D138BD080080001C
:10517000E0570020054B9A88073292B29A809A79BC
:1051800042F001029A71FFF7B5BA00BFE057002064
:10519000134B00211A6942F000721A61114B9A6890
:1051A0004FF44853B2FBF3F20F4BC3F8C010C3F8EF
:1051B000C4104FF40041C3F88410C3F89C20520877
:1051C000C3F89420094A4FF00071C3F884200522E7
:1051D000C3F88020064A11601022C3F8A42070474B
:1051E00000040E40E05700200000014003C0090009
:1051F00000E100E0024BD3F8A030FFF7BBBF00BFD7
:1052000000000140013900E0184611F8012F034663
:1052100003F8012B002AF7D170472DE9F04107462A
:105220000C4601F1090838462146FEF7D1FD064635
:1052300048BB637A3BB3A069037813B94146FFF7D3
:10524000E1FFA569284600F09DF9031FE95C2E29BE
:1052500001D1DB0F00E001232D1815F8032C22F0FB
:105260002002422A18BF012315F8022C22F0200246
:10527000492A18BF012315F8012C22F020024E2ADA
:10528000D1D1002BCFD13046BDE8F081F8B5204C0C
:10529000002104F12C0363620646302304F5DE701E
:1052A000A362FEF795FD04F10C0104F5DE70FEF734
:1052B0008FFD04F5DE7004F10C01FEF789FD002579
:1052C00014480135A0F5D871FFF7A7FFE36804285B
:1052D000C4F8E03119D0B542F2D90D4D012405F1E1
:1052E0002C06322707FB04630A486B62A0F5D871CD
:1052F000FFF793FFEB68084A42F8243030B96B7D22
:1053000023B10134072CEDD100E000242046F8BD84
:10531000E05700209C590020C059002070B5124C65
:10532000054604F50C7630461049FFF76BFF04F193
:105330002C03322101FB053104F51B75FFF762FFD9
:10534000012231462846FEF7E7FA28464FF400418D
:10535000FEF7A4FC064B284604F522714FF4805258
:10536000BDE87040FEF71CBBE05700205C694000C0
:10537000686A002070B52F4D0446FDF7F5FB00204C
:105380002D49FDF726FBD5F89431ABB92046FFF740
:10539000C5FF2A48FEF790FBD5F890312848B3F5B1
:1053A000805F14BF02230123C5F89431FFF76AFE22
:1053B00010B90223C5F894311E4DD5F89431022B53
:1053C0000ED118201F49FDF704FB30201E49FDF7C0
:1053D00000FBFFF7FFF8812814BF0420032070BDF5
:1053E0001A4E322206F12C0302FB04320020152350
:1053F0001021FDF7DBFA30201549FDF7EAFA2820E5
:105400001449FDF7E6FAFFF7E5F880280DD12046AC
:10541000FFF784FF06EB8404D4F8E03100280CBFCA
:1054200002200420C5F8983170BDB0F181025042CD
:10543000504170BDD8680020676940004C5A002078
:10544000685A00207369400088694000E0570020D6
:10545000906940009F6940000F2AF0B440D941EAAA
:1054600000039B073ED10C46034615462668103DB7
:105470001E6066685E60A6689E60E6681034DE6046
:1054800010330F2DF2D8A2F1100502F00F0425F011
:105490000F051035032C00EB0503294424D9A4F192
:1054A000040C1D460C464FEA9C0C01EB8C0704379C
:1054B00054F8046BBC4245F8046BF9D10CF10104BB
:1054C00002F00302A40009191B193AB101399A1814
:1054D00011F8014F03F8014B9342F9D1F0BC70472A
:1054E0000346F2E70346F1E72246EEE770B484078D
:1054F000034644D0541E002A3FD0CEB202E0002C16
:105500003BD0144603F8016B13F0030F1D4604F162
:10551000FF32F4D1032C29D9CAB20F2C84BF2B46F9
:10552000264642EA022242EA024211D9103E1A609D
:105530005A609A60DA6010330F2EF7D8A4F1100386
:1055400004F00F0423F00F031033032C1D440DD976
:105550002E462346043B46F8042B032BFAD8231F80
:1055600004F0030423F003030433ED182CB1C9B293
:105570002C1905F8011BA542FBD170BC70470546EC
:105580001446C7E720F0030110F00300C0F100004B
:1055900051F8043B00F1040C4FEACC0C6FF0000210
:1055A0001CBF22FA0CF213434FF0010C4CEA0C2CF6
:1055B0004CEA0C4CA3EB0C0222EA030212EACC12D6
:1055C00004BF51F8043B0430F4D013F0FF0F1FBFA9
:1055D000013013F47F4F013013F47F0F18BF0130F7
:1055E000704700BF2DE9F04F85B0FFF7F5FCB74BD2
:1055F000B74CD3F8142142F0F002C3F81421FFF79E
:10560000A5F9B44B4FF000721A60FFF7FFFCFDF7ED
:10561000F1FA01232370FDF7A7FAFDF73FFB002302
:105620002370FDF73BFB62B6FFF7B2FDAA4B4FF0CC
:10563000FF321A60FFF74AFBA84BA94C1B68C3F363
:105640000323092B14BF4FF400734FF48073C4F885
:105650009C31FFF75FFDC4F8A00108B1FFF770FDB2
:105660004FF000084FF480019D4D03914646474698
:10567000C2464446C146D5F8A431642B01D9FFF790
:1056800098F9984A984B1360984A9279002A00F04A
:10569000EF8194490B6095F8A83133B1013BDBB23F
:1056A00085F8A8310BB9FFF7CBFB904B4FF0000BFF
:1056B00083F806B00193FDF757FA58468C49FDF779
:1056C00088F94E2059463122FDF75AF934225820E4
:1056D0005946FDF755F995F8A921019B42B19B88E0
:1056E00003F400739BB21BB108208249FDF771F9E6
:1056F000FEF7B4FC002800F0AB815F2000217E4A59
:10570000FDF76EF9FFF7D0F90A2CA5F8AA0100F011
:10571000D481D5F8A431632B2FD96E4BDB6B990163
:105720002BD595F8A901D0F1010038BF0020FFF773
:10573000C5F9C2E1674BDB6B13F0007F0CBF00249F
:105740000A2400E00024002030214622FDF718F949
:105750006A4B06201A6830213032D2B2FDF710F9B8
:10576000002038214522FDF70BF9654B06201A6809
:1057700038213032D2B2FDF703F95CB920466149D5
:10578000FEF7BAF8002840F063815F48FEF7A6F9FB
:1057900020B19CE1012C40F0A081F6E781465B48F6
:1057A0005B49FEF7DEFA0446002840F09A81FFF7D5
:1057B0006DFD264682462746A14602E0032C40F0B6
:1057C000B9800024BAF1060F34BFD3464FF0060B60
:1057D000A4462BE04F4B322202FB0C30CDF808C020
:1057E000FFF7D0FEA04288BFC4B21528DDF808C07C
:1057F00005D906F11503834203D9153802E00020CC
:1058000000E03046322303FB0C020CF10201414B55
:10581000C9009A18002001F0F8011523CDF808C03E
:10582000FDF7C4F8DDF808C00CF1010CDC45D1D15E
:10583000FEF7D0FE6628034608D195F8A931D3F1CA
:10584000010338BF002385F8A93167E0422801D061
:10585000622811D10BF1FF32974201D201370BE0E0
:10586000DA4509D909F101095FFA89F94846019336
:10587000FFF70CFD019B8246432B01D0632B0FD118
:105880000FB1013F0CE0B9F1000F09D009F1FF3968
:105890005FFA89F948460193FFF7F8FC019B8246BD
:1058A000442B01D0642B04D106F11502A24238BF6B
:1058B0000136452B01D0652B01D106B1013E802B6D
:1058C0002AD10023C5F8943104242AE000020E40B6
:1058D000CF05002000120E40DC57002040070E408C
:1058E000D868002050140E40010000A5E0570020A9
:1058F000A7694000B7694000C369400074000020F8
:1059000070000020846A0020C96940009C59002072
:10591000B56940000C580020812B01D0032400E021
:105920000B24B91CC900002001F0F8017E220346B7
:10593000FDF7C6F8042C15D13846FFF71BFD6B4B5D
:10594000012803EB8703D3F8E031A3F50043C5F842
:10595000983100F0C880022807D0032814BF04241F
:10596000032475E0052C66D104E04FF481014FF06B
:105970000008039118205E494FF0000BFDF729F84D
:105980005C4A5B461AE002EB8B010398029201939A
:10599000FFF790FB0399019B01F580710391D5F806
:1059A0009011029AB1F5807F88BFA1F580710BF14B
:1059B000400B8CBFC5F89011C5F89031D5F89041D7
:1059C000002CE0D14C4A2046D2F898312721C3F36D
:1059D000073B0BF101035BB21A460193FDF786F812
:1059E000019B204630211A46FDF780F858462821B1
:1059F000082208F10108FDF77CF805E0E0B2282153
:105A00000822FDF776F801344445F7D33B483C4B78
:105A100000F11C014FF48052FDF7C2FF3649D5F862
:105A20009041D1F89C31002C0CBF062405249B0822
:105A3000093B984501D8062C0AD1FEF7CBFD314928
:105A400004461820FCF7C5FF812C0CBF0324062454
:105A5000FDF724F9D5F8A431C72B02D80133C5F8D6
:105A6000A431254AD2F8A431132B01D9FEF758FBF3
:105A7000032C01D9062C14D1FFF7BBFA10B9FFF79C
:105A8000BFFAFEE7022C0CD8FEF7A4FD81287FF4B4
:105A9000F2ADFEF7E0FEC04310F07E0F03D00B2402
:105AA000E9E50B2CF3E7184A184BD16801F4E061E3
:105AB0000B43D360BFF34F8FFEE718201449FCF768
:105AC00088FFD5F8A431632B3FF634AE3AE61020B8
:105AD0001049FCF77EFF0124BAE7022C7FF46EAE7A
